:020000040800F2
:10000000000002207D020008CD020008CD02000899
:10001000CD020008CD020008CD020008000000005B
:10002000000000000000000000000000CD020008F9
:10003000CD02000800000000CD020008CD0200083B
:10004000CD020008CD020008CD020008CD02000854
:10005000CD020008CD020008CD020008CD02000844
:10006000CD020008CD020008CD020008CD02000834
:10007000CD020008CD020008CD020008CD02000824
:10008000CD020008CD020008CD020008CD02000814
:10009000CD020008CD020008CD020008CD02000804
:1000A000CD020008CD020008CD020008CD020008F4
:1000B000CD020008CD020008CD020008CD020008E4
:1000C000CD020008CD020008CD020008CD020008D4
:1000D000CD020008CD020008CD020008CD020008C4
:1000E000CD020008CD020008CD020008CD020008B4
:1000F000CD020008CD020008CD020008CD020008A4
:10010000CD020008CD020008CD020008CD02000893
:10011000CD020008CD020008CD020008CD02000883
:10012000CD020008CD020008CD020008CD02000873
:10013000CD0200080000000000000000CD02000811
:10014000CD020008CD020008CD020008CD02000853
:10015000CD020008CD020008CD020008CD02000843
:10016000CD020008CD020008CD020008CD02000833
:10017000CD020008CD020008CD02000800000000FA
:1001800000000000CD020008000000000000000098
:10019000CD0200080000000000000000CD020008B1
:1001A000000000000000000000000000CD02000878
:1001B000CD020008CD020008CD020008CD020008E3
:0401C000CD02000864
:1001C4000348044B834202D0034B03B118477047E2
:1001D4000000002000000020000000000548064B3D
:1001E4001B1AD90F01EBA301491002D0034B03B131
:1001F40018477047000000200000002000000000A5
:1002040010B5064C237843B9FFF7DAFF044B13B15A
:100214000448AFF300800123237010BD00000020C8
:10022400000000001803000808B5054B1BB1054980
:100234000548AFF30080BDE80840FFF7CFBF00BF1B
:1002440000000000040000201803000880B400AF80
:10025400064BD3F88830054A43F47003C2F888305B
:1002640000BFBD465DF8047B704700BF00ED00E0B1
:1002740080B400AF00BFFDE7DFF834D00D480E496D
:100284000E4A002302E0D458C4500433C4188C42EC
:10029400F9D30B4A0B4C002301E013600432A24251
:1002A400FBD3FFF7D3FF00F011F8FFF7E1FF70472E
:1002B4000000022000000020000000203803000895
:1002C400000000201C000020FEE7000070B50D4D6A
:1002D4000D4C641BA4100026A64209D10B4D0C4CF6
:1002E40000F018F8641BA4100026A64205D170BDC6
:1002F40055F8043B98470136EEE755F8043B984718
:100304000136F2E730030008300300083003000828
:1003140034030008F8B500BFF8BC08BC9E4670471B
:0C032400F8B500BFF8BC08BC9E4670474E
:040330002D02000892
:0403340005020008B6
:040000050800027D70
:00000001FF
